{
  "contractName": "PetOwner",
  "abi": [
    {
      "constant": true,
      "inputs": [],
      "name": "snowflakeDescription",
      "outputs": [
        {
          "name": "",
          "type": "string"
        }
      ],
      "payable": false,
      "stateMutability": "view",
      "type": "function"
    },
    {
      "constant": true,
      "inputs": [],
      "name": "snowflakeName",
      "outputs": [
        {
          "name": "",
          "type": "string"
        }
      ],
      "payable": false,
      "stateMutability": "view",
      "type": "function"
    },
    {
      "constant": true,
      "inputs": [],
      "name": "owner",
      "outputs": [
        {
          "name": "",
          "type": "address"
        }
      ],
      "payable": false,
      "stateMutability": "view",
      "type": "function"
    },
    {
      "constant": true,
      "inputs": [],
      "name": "callOnRemoval",
      "outputs": [
        {
          "name": "",
          "type": "bool"
        }
      ],
      "payable": false,
      "stateMutability": "view",
      "type": "function"
    },
    {
      "constant": false,
      "inputs": [
        {
          "name": "_address",
          "type": "address"
        }
      ],
      "name": "setSnowflakeAddress",
      "outputs": [],
      "payable": false,
      "stateMutability": "nonpayable",
      "type": "function"
    },
    {
      "constant": true,
      "inputs": [],
      "name": "callOnSignUp",
      "outputs": [
        {
          "name": "",
          "type": "bool"
        }
      ],
      "payable": false,
      "stateMutability": "view",
      "type": "function"
    },
    {
      "constant": false,
      "inputs": [
        {
          "name": "newOwner",
          "type": "address"
        }
      ],
      "name": "transferOwnership",
      "outputs": [],
      "payable": false,
      "stateMutability": "nonpayable",
      "type": "function"
    },
    {
      "constant": true,
      "inputs": [],
      "name": "snowflakeAddress",
      "outputs": [
        {
          "name": "",
          "type": "address"
        }
      ],
      "payable": false,
      "stateMutability": "view",
      "type": "function"
    },
    {
      "inputs": [
        {
          "name": "snowflakeAddress",
          "type": "address"
        }
      ],
      "payable": false,
      "stateMutability": "nonpayable",
      "type": "constructor"
    },
    {
      "anonymous": false,
      "inputs": [
        {
          "indexed": false,
          "name": "hydroId",
          "type": "string"
        },
        {
          "components": [
            {
              "name": "petType",
              "type": "string"
            },
            {
              "name": "name",
              "type": "string"
            },
            {
              "name": "desc",
              "type": "string"
            },
            {
              "name": "petIdentification",
              "type": "string"
            },
            {
              "name": "timestamp",
              "type": "uint256"
            }
          ],
          "indexed": false,
          "name": "thePet",
          "type": "tuple"
        }
      ],
      "name": "PetUpdated",
      "type": "event"
    },
    {
      "anonymous": false,
      "inputs": [
        {
          "indexed": true,
          "name": "previousOwner",
          "type": "address"
        },
        {
          "indexed": true,
          "name": "newOwner",
          "type": "address"
        }
      ],
      "name": "OwnershipTransferred",
      "type": "event"
    },
    {
      "constant": false,
      "inputs": [
        {
          "name": "hydroId",
          "type": "string"
        },
        {
          "name": "allowance",
          "type": "uint256"
        }
      ],
      "name": "onSignUp",
      "outputs": [
        {
          "name": "",
          "type": "bool"
        }
      ],
      "payable": false,
      "stateMutability": "nonpayable",
      "type": "function"
    },
    {
      "constant": true,
      "inputs": [
        {
          "name": "hydroId",
          "type": "string"
        }
      ],
      "name": "getPet",
      "outputs": [
        {
          "name": "petType",
          "type": "string"
        },
        {
          "name": "name",
          "type": "string"
        },
        {
          "name": "desc",
          "type": "string"
        },
        {
          "name": "petIdentification",
          "type": "string"
        }
      ],
      "payable": false,
      "stateMutability": "view",
      "type": "function"
    },
    {
      "constant": false,
      "inputs": [
        {
          "name": "petType",
          "type": "string"
        },
        {
          "name": "name",
          "type": "string"
        },
        {
          "name": "desc",
          "type": "string"
        },
        {
          "name": "petIdentification",
          "type": "string"
        }
      ],
      "name": "setPet",
      "outputs": [
        {
          "name": "success",
          "type": "bool"
        }
      ],
      "payable": false,
      "stateMutability": "nonpayable",
      "type": "function"
    }
  ],
  "bytecode": "0x6080604052670de0b6b3a76400006005553480156200001d57600080fd5b50604051602080620020eb83398101806040526200003f91908101906200039b565b6000336000806101000a81548173ffffffffffffffffffffffffffffffffffffffff021916908373ffffffffffffffffffffffffffffffffffffffff160217905550606060405190810160405280602781526020017f506574204f776e6572202d2067657420467269656e644f6650657473206d656d81526020017f626572736869700000000000000000000000000000000000000000000000000081525060019080519060200190620000f5929190620002d6565b50606060405190810160405280603981526020017f526567697374727920796f75722050657420746f20626520612066756c6c792081526020017f7175616c696669656420467269656e64206f6620506574732100000000000000815250600290805190602001906200016a929190620002d6565b50620001858262000236640100000000026401000000009004565b6001600360146101000a81548160ff0219169083151502179055508190508073ffffffffffffffffffffffffffffffffffffffff1663d12a7b42306040518263ffffffff167c0100000000000000000000000000000000000000000000000000000000028152600401620001fa9190620003d8565b600060405180830381600087803b1580156200021557600080fd5b505af11580156200022a573d6000803e3d6000fd5b50505050505062000435565b6000809054906101000a900473ffffffffffffffffffffffffffffffffffffffff1673ffffffffffffffffffffffffffffffffffffffff163373ffffffffffffffffffffffffffffffffffffffff161415156200029257600080fd5b80600360006101000a81548173ffffffffffffffffffffffffffffffffffffffff021916908373ffffffffffffffffffffffffffffffffffffffff16021790555050565b828054600181600116156101000203166002900490600052602060002090601f016020900481019282601f106200031957805160ff19168380011785556200034a565b828001600101855582156200034a579182015b82811115620003495782518255916020019190600101906200032c565b5b5090506200035991906200035d565b5090565b6200038291905b808211156200037e57600081600090555060010162000364565b5090565b90565b600062000393825162000415565b905092915050565b600060208284031215620003ae57600080fd5b6000620003be8482850162000385565b91505092915050565b620003d281620003f5565b82525050565b6000602082019050620003ef6000830184620003c7565b92915050565b600073ffffffffffffffffffffffffffffffffffffffff82169050919050565b600073ffffffffffffffffffffffffffffffffffffffff82169050919050565b611ca680620004456000396000f3006080604052600436106100af576000357c0100000000000000000000000000000000000000000000000000000000900463ffffffff16806376acf1b6146100b457806388cdab94146100df5780638da5cb5b1461010a5780638f06492d14610135578063b7197d8814610160578063c979b05a1461019d578063d0d73a16146101c6578063d42e87ed14610206578063f2fde38b14610231578063f9f451b81461025a578063ff4cfa5e14610285575b600080fd5b3480156100c057600080fd5b506100c96102c2565b6040516100d691906119f3565b60405180910390f35b3480156100eb57600080fd5b506100f4610360565b60405161010191906119f3565b60405180910390f35b34801561011657600080fd5b5061011f6103fe565b60405161012c91906119bd565b60405180910390f35b34801561014157600080fd5b5061014a610423565b60405161015791906119d8565b60405180910390f35b34801561016c57600080fd5b5061018760048036036101829190810190611639565b610436565b60405161019491906119d8565b60405180910390f35b3480156101a957600080fd5b506101c460048036036101bf919081019061158e565b61086e565b005b3480156101d257600080fd5b506101ed60048036036101e891908101906115b7565b61090d565b6040516101fd9493929190611a53565b60405180910390f35b34801561021257600080fd5b5061021b610d4a565b60405161022891906119d8565b60405180910390f35b34801561023d57600080fd5b506102586004803603610253919081019061158e565b610d5d565b005b34801561026657600080fd5b5061026f610eb2565b60405161027c91906119bd565b60405180910390f35b34801561029157600080fd5b506102ac60048036036102a791908101906116fc565b610ed8565b6040516102b991906119d8565b60405180910390f35b60028054600181600116156101000203166002900480601f0160208091040260200160405190810160405280929190818152602001828054600181600116156101000203166002900480156103585780601f1061032d57610100808354040283529160200191610358565b820191906000526020600020905b81548152906001019060200180831161033b57829003601f168201915b505050505081565b60018054600181600116156101000203166002900480601f0160208091040260200160405190810160405280929190818152602001828054600181600116156101000203166002900480156103f65780601f106103cb576101008083540402835291602001916103f6565b820191906000526020600020905b8154815290600101906020018083116103d957829003601f168201915b505050505081565b6000809054906101000a900473ffffffffffffffffffffffffffffffffffffffff1681565b600360159054906101000a900460ff1681565b6000806060600360009054906101000a900473ffffffffffffffffffffffffffffffffffffffff1691508173ffffffffffffffffffffffffffffffffffffffff166399734fe4336040518263ffffffff167c01000000000000000000000000000000000000000000000000000000000281526004016104b591906119bd565b600060405180830381600087803b1580156104cf57600080fd5b505af11580156104e3573d6000803e3d6000fd5b505050506040513d6000823e3d601f19601f8201168201806040525061050c91908101906115f8565b905060006004826040518082805190602001908083835b6020831015156105485780518252602082019150602081019050602083039250610523565b6001836020036101000a03801982511681845116808217855250505050505090500191505090815260200160405180910390206003018054600181600116156101000203166002900490501480156105a257506000845114155b1561085f57836004826040518082805190602001908083835b6020831015156105e057805182526020820191506020810190506020830392506105bb565b6001836020036101000a03801982511681845116808217855250505050505090500191505090815260200160405180910390206003019080519060200190610629929190611415565b50866004826040518082805190602001908083835b602083101515610663578051825260208201915060208101905060208303925061063e565b6001836020036101000a038019825116818451168082178552505050505050905001915050908152602001604051809103902060000190805190602001906106ac929190611415565b50856004826040518082805190602001908083835b6020831015156106e657805182526020820191506020810190506020830392506106c1565b6001836020036101000a0380198251168184511680821785525050505050509050019150509081526020016040518091039020600101908051906020019061072f929190611415565b50846004826040518082805190602001908083835b6020831015156107695780518252602082019150602081019050602083039250610744565b6001836020036101000a038019825116818451168082178552505050505050905001915050908152602001604051809103902060020190805190602001906107b2929190611415565b507f078b433772cb458acc30dd9f1a950d7c7265f4d1b65db10c25402519154e6ff0816004836040518082805190602001908083835b60208310151561080d57805182526020820191506020810190506020830392506107e8565b6001836020036101000a038019825116818451168082178552505050505050905001915050908152602001604051809103902060405161084e929190611ab4565b60405180910390a160019250610864565b600092505b5050949350505050565b6000809054906101000a900473ffffffffffffffffffffffffffffffffffffffff1673ffffffffffffffffffffffffffffffffffffffff163373ffffffffffffffffffffffffffffffffffffffff161415156108c957600080fd5b80600360006101000a81548173ffffffffffffffffffffffffffffffffffffffff021916908373ffffffffffffffffffffffffffffffffffffffff16021790555050565b6060806060806004856040518082805190602001908083835b60208310151561094b5780518252602082019150602081019050602083039250610926565b6001836020036101000a03801982511681845116808217855250505050505090500191505090815260200160405180910390206000016004866040518082805190602001908083835b6020831015156109b95780518252602082019150602081019050602083039250610994565b6001836020036101000a03801982511681845116808217855250505050505090500191505090815260200160405180910390206001016004876040518082805190602001908083835b602083101515610a275780518252602082019150602081019050602083039250610a02565b6001836020036101000a03801982511681845116808217855250505050505090500191505090815260200160405180910390206002016004886040518082805190602001908083835b602083101515610a955780518252602082019150602081019050602083039250610a70565b6001836020036101000a0380198251168184511680821785525050505050509050019150509081526020016040518091039020600301838054600181600116156101000203166002900480601f016020809104026020016040519081016040528092919081815260200182805460018160011615610100020316600290048015610b605780601f10610b3557610100808354040283529160200191610b60565b820191906000526020600020905b815481529060010190602001808311610b4357829003601f168201915b50505050509350828054600181600116156101000203166002900480601f016020809104026020016040519081016040528092919081815260200182805460018160011615610100020316600290048015610bfc5780601f10610bd157610100808354040283529160200191610bfc565b820191906000526020600020905b815481529060010190602001808311610bdf57829003601f168201915b50505050509250818054600181600116156101000203166002900480601f016020809104026020016040519081016040528092919081815260200182805460018160011615610100020316600290048015610c985780601f10610c6d57610100808354040283529160200191610c98565b820191906000526020600020905b815481529060010190602001808311610c7b57829003601f168201915b50505050509150808054600181600116156101000203166002900480601f016020809104026020016040519081016040528092919081815260200182805460018160011615610100020316600290048015610d345780601f10610d0957610100808354040283529160200191610d34565b820191906000526020600020905b815481529060010190602001808311610d1757829003601f168201915b5050505050905093509350935093509193509193565b600360149054906101000a900460ff1681565b6000809054906101000a900473ffffffffffffffffffffffffffffffffffffffff1673ffffffffffffffffffffffffffffffffffffffff163373ffffffffffffffffffffffffffffffffffffffff16141515610db857600080fd5b600073ffffffffffffffffffffffffffffffffffffffff168173ffffffffffffffffffffffffffffffffffffffff1614151515610df457600080fd5b8073ffffffffffffffffffffffffffffffffffffffff166000809054906101000a900473ffffffffffffffffffffffffffffffffffffffff1673ffffffffffffffffffffffffffffffffffffffff167f8be0079c531659141344cd1fd0a4f28419497f9722a3daafe3b4186f6b6457e060405160405180910390a3806000806101000a81548173ffffffffffffffffffffffffffffffffffffffff021916908373ffffffffffffffffffffffffffffffffffffffff16021790555050565b600360009054906101000a900473ffffffffffffffffffffffffffffffffffffffff1681565b600080600360009054906101000a900473ffffffffffffffffffffffffffffffffffffffff1673ffffffffffffffffffffffffffffffffffffffff163373ffffffffffffffffffffffffffffffffffffffff16141515610f6d576040517f08c379a0000000000000000000000000000000000000000000000000000000008152600401610f6490611b0b565b60405180910390fd5b6005548310151515610fb4576040517f08c379a0000000000000000000000000000000000000000000000000000000008152600401610fab90611aeb565b60405180910390fd5b600360009054906101000a900473ffffffffffffffffffffffffffffffffffffffff1690508073ffffffffffffffffffffffffffffffffffffffff166369c74033856000809054906101000a900473ffffffffffffffffffffffffffffffffffffffff166005546040518463ffffffff167c010000000000000000000000000000000000000000000000000000000002815260040161105593929190611a15565b600060405180830381600087803b15801561106f57600080fd5b505af1158015611083573d6000803e3d6000fd5b505050506040805190810160405280600581526020017f70657449640000000000000000000000000000000000000000000000000000008152506004856040518082805190602001908083835b6020831015156110f557805182526020820191506020810190506020830392506110d0565b6001836020036101000a0380198251168184511680821785525050505050509050019150509081526020016040518091039020600301908051906020019061113e929190611415565b506040805190810160405280600b81526020017f74797065206f66207065740000000000000000000000000000000000000000008152506004856040518082805190602001908083835b6020831015156111ad5780518252602082019150602081019050602083039250611188565b6001836020036101000a038019825116818451168082178552505050505050905001915050908152602001604051809103902060000190805190602001906111f6929190611415565b506040805190810160405280600b81526020017f6d7920706574206e616d650000000000000000000000000000000000000000008152506004856040518082805190602001908083835b6020831015156112655780518252602082019150602081019050602083039250611240565b6001836020036101000a038019825116818451168082178552505050505050905001915050908152602001604051809103902060010190805190602001906112ae929190611415565b506040805190810160405280600f81526020017f706574206465736372697074696f6e00000000000000000000000000000000008152506004856040518082805190602001908083835b60208310151561131d57805182526020820191506020810190506020830392506112f8565b6001836020036101000a03801982511681845116808217855250505050505090500191505090815260200160405180910390206002019080519060200190611366929190611415565b507f078b433772cb458acc30dd9f1a950d7c7265f4d1b65db10c25402519154e6ff0846004866040518082805190602001908083835b6020831015156113c1578051825260208201915060208101905060208303925061139c565b6001836020036101000a0380198251168184511680821785525050505050509050019150509081526020016040518091039020604051611402929190611ab4565b60405180910390a1600191505092915050565b828054600181600116156101000203166002900490600052602060002090601f016020900481019282601f1061145657805160ff1916838001178555611484565b82800160010185558215611484579182015b82811115611483578251825591602001919060010190611468565b5b5090506114919190611495565b5090565b6114b791905b808211156114b357600081600090555060010161149b565b5090565b90565b60006114c68235611be2565b905092915050565b600082601f83011215156114e157600080fd5b81356114f46114ef82611b58565b611b2b565b9150808252602083016020830185838301111561151057600080fd5b61151b838284611c0c565b50505092915050565b600082601f830112151561153757600080fd5b815161154a61154582611b58565b611b2b565b9150808252602083016020830185838301111561156657600080fd5b611571838284611c1b565b50505092915050565b60006115868235611c02565b905092915050565b6000602082840312156115a057600080fd5b60006115ae848285016114ba565b91505092915050565b6000602082840312156115c957600080fd5b600082013567ffffffffffffffff8111156115e357600080fd5b6115ef848285016114ce565b91505092915050565b60006020828403121561160a57600080fd5b600082015167ffffffffffffffff81111561162457600080fd5b61163084828501611524565b91505092915050565b6000806000806080858703121561164f57600080fd5b600085013567ffffffffffffffff81111561166957600080fd5b611675878288016114ce565b945050602085013567ffffffffffffffff81111561169257600080fd5b61169e878288016114ce565b935050604085013567ffffffffffffffff8111156116bb57600080fd5b6116c7878288016114ce565b925050606085013567ffffffffffffffff8111156116e457600080fd5b6116f0878288016114ce565b91505092959194509250565b6000806040838503121561170f57600080fd5b600083013567ffffffffffffffff81111561172957600080fd5b611735858286016114ce565b92505060206117468582860161157a565b9150509250929050565b61175981611bac565b82525050565b61176881611bcc565b82525050565b600061177982611ba1565b80845261178d816020860160208601611c1b565b61179681611c4e565b602085010191505092915050565b60006117af82611b96565b8084526117c3816020860160208601611c1b565b6117cc81611c4e565b602085010191505092915050565b6000815460018116600081146117f7576001811461181757611858565b607f600283041680865260ff198316602087015260408601935050611858565b6002820480865260208601955061182d85611b84565b60005b8281101561184f57815481890152600182019150602081019050611830565b80880195505050505b505092915050565b6000602a82527f4d7573742073657420616e20616c6c6f77616e6365206f66206174206c65617360208301527f74203120485944524f2e000000000000000000000000000000000000000000006040830152606082019050919050565b6000602182527f446964206e6f74206f726967696e6174652066726f6d20536e6f77666c616b6560208301527f2e000000000000000000000000000000000000000000000000000000000000006040830152606082019050919050565b600060a083016000808401858303600087015261193783826117da565b92505060018401858303602087015261195083826117da565b92505060028401858303604087015261196983826117da565b92505060038401858303606087015261198283826117da565b9250506004840154905061199581611c5f565b6119a260808701826119ae565b50819250505092915050565b6119b781611bd8565b82525050565b60006020820190506119d26000830184611750565b92915050565b60006020820190506119ed600083018461175f565b92915050565b60006020820190508181036000830152611a0d81846117a4565b905092915050565b60006060820190508181036000830152611a2f818661176e565b9050611a3e6020830185611750565b611a4b60408301846119ae565b949350505050565b60006080820190508181036000830152611a6d818761176e565b90508181036020830152611a81818661176e565b90508181036040830152611a95818561176e565b90508181036060830152611aa9818461176e565b905095945050505050565b60006040820190508181036000830152611ace818561176e565b90508181036020830152611ae2818461191a565b90509392505050565b60006020820190508181036000830152611b0481611860565b9050919050565b60006020820190508181036000830152611b24816118bd565b9050919050565b6000604051905081810181811067ffffffffffffffff82111715611b4e57600080fd5b8060405250919050565b600067ffffffffffffffff821115611b6f57600080fd5b601f19601f8301169050602081019050919050565b60008160005260206000209050919050565b600081519050919050565b600081519050919050565b600073ffffffffffffffffffffffffffffffffffffffff82169050919050565b60008115159050919050565b6000819050919050565b600073ffffffffffffffffffffffffffffffffffffffff82169050919050565b6000819050919050565b82818337600083830152505050565b60005b83811015611c39578082015181840152602081019050611c1e565b83811115611c48576000848401525b50505050565b6000601f19601f8301169050919050565b60006001820490509190505600a265627a7a723058201c9302ca8685e3e1068b17e5b6f27a0276d44de4b1ce6b383ba756b5cc455e316c6578706572696d656e74616cf50037",
  "source": "pragma solidity ^0.4.24;\r\npragma experimental ABIEncoderV2;\r\n\r\nimport \"./SnowflakeResolver.sol\";\r\n\r\n\r\ninterface Snowflake {\r\n    function whitelistResolver(address resolver) external;\r\n    function withdrawSnowflakeBalanceFrom(string hydroIdFrom, address to, uint amount) external;\r\n    function getHydroId(address _address) external returns (string hydroId);\r\n}\r\n\r\ncontract PetOwner is SnowflakeResolver {\r\n    \r\n\r\n    //Pet fields\r\n    struct Pet {\r\n        //PetChoices choice; //tipo de animal\r\n        string petType;\r\n        string name;\r\n        string desc;\r\n        string petIdentification;\r\n        //uint8 ageInYears;\r\n        uint timestamp; //puede crease con valor now, fecha de registro\r\n    }\r\n\r\n    //para contener la mascota de cada hydroID\r\n    mapping (string => Pet)  pets; //\r\n\r\n    uint signUpFee = 1000000000000000000;\r\n\r\n    constructor (address snowflakeAddress) public {\r\n        snowflakeName = \"Pet Owner - get FriendOfPets membership\";\r\n        snowflakeDescription = \"Registry your Pet to be a fully qualified Friend of Pets!\";\r\n\t\tsetSnowflakeAddress(snowflakeAddress);\r\n\r\n        callOnSignUp = true;\r\n\t\tSnowflake snowflake = Snowflake(snowflakeAddress);\r\n        snowflake.whitelistResolver(address(this));\r\n    }\r\n\r\n    // implement signup function\r\n    function onSignUp(string hydroId, uint allowance) public senderIsSnowflake()  returns (bool) {\r\n        require(allowance >= signUpFee, \"Must set an allowance of at least 1 HYDRO.\");\r\n        Snowflake snowflake = Snowflake(snowflakeAddress);\r\n        snowflake.withdrawSnowflakeBalanceFrom(hydroId, owner, signUpFee);\r\n        \r\n\t\t//3. update the data\r\n\t\t\tpets[hydroId].petIdentification = \"petId\";\r\n\t\t\tpets[hydroId].petType = \"type of pet\";\r\n\t\t\tpets[hydroId].name=\"my pet name\";\r\n\t\t\tpets[hydroId].desc=\"pet description\";\r\n\t\t\t//pets[hydroId].timestamp = now;\r\n\t\t\temit PetUpdated(hydroId,pets[hydroId]);\r\n\t\t\t\r\n        return true;\r\n    }\r\n\r\n    // el mapeo \"public\" expone un metodo get para la mascota\r\n    function getPet(string hydroId) public view returns (string petType, string name, string desc, string petIdentification) {\r\n        //Pet memory mascota = pets[hydroId];\r\n        return (pets[hydroId].petType, pets[hydroId].name, pets[hydroId].desc, pets[hydroId].petIdentification);\r\n    }\r\n\r\n    function setPet(string petType, string name, string desc, string petIdentification) public returns (bool success)  {\r\n\r\n        Snowflake snowflake = Snowflake(snowflakeAddress);\r\n        string memory hydroId = snowflake.getHydroId(msg.sender);\r\n\r\n\t\t//1. verify all required fields\r\n\t\t//2. verify   petIdentification not repeated\r\n\t\tif(bytes(pets[hydroId].petIdentification).length == 0 && bytes(petIdentification).length != 0){\r\n\t\t\t//3. update the data\r\n\t\t\tpets[hydroId].petIdentification = petIdentification;\r\n\t\t\tpets[hydroId].petType = petType;\r\n\t\t\tpets[hydroId].name=name;\r\n\t\t\tpets[hydroId].desc=desc;\r\n\t\t\t//pets[hydroId].timestamp = now;\r\n\t\t\temit PetUpdated(hydroId,pets[hydroId]);\r\n\t\t\treturn (true);\r\n\t\t}else{\r\n\t\t\treturn (false);\r\n\t\t}\r\n    }\r\n\r\n    event PetUpdated(string hydroId, Pet thePet);\r\n}\r\n",
  "sourcePath": "C:\\dev\\truffle\\petTest\\contracts\\PetOwner.sol",
  "compiler": {
    "name": "solc",
    "version": "0.4.24+commit.e67f0147.Emscripten.clang"
  },
  "schemaVersion": "2.0.1",
  "updatedAt": "2018-10-10T17:04:53.624Z"
}